:0300000002025D9C
:0C025D00787FE4F6D8FD75813A0202A417
:1004AB00C0F9A4B0999282F88090BFFF8883C6A14F
:1004BB00868E89C78CC1C0F9A4B0999282F88090BE
:1004CB000102040810204080000000000000C0F969
:0B04DB00A4B0999282F88090BF88C600
:1006BF00092AFEFDFBF7EFDFBF7FFF0235000001C8
:0606CF00230002210000DF
:0405E0007F327E00E8
:1005E400E4FDFCC3ED9FEE6480F8EC648098501445
:1005F4007B4D7A03EB1B70011AEB4A70F70DBD00BB
:04060400010C80DF86
:0106080022CF
:080721007F067ED3DEFEDFFC43
:0107290022AD
:08072A007F027E27DEFEDFFCEA
:0107320022A4
:1004E600E5A0541F4480F5A07580FF53A01FE5A02A
:1004F600541F44A0F5A05380AF53A01FE5A0541F7E
:1005060044C0F5A07580FF53A01FE5A0541F44E02A
:09051600F5A07580FF53A01F221F
:0801B0008B088A09890A8D0BF6
:1001B800E4F50CC37407950CFFE50BA8070880024B
:1001C800C313D8FC30E04AE5A0541F44E0F5A075FD
:1001D80080FFE5A0541F44C0F5A0AF0C7401A80728
:1001E800088002C333D8FCF5807F017E001205E445
:1001F800E5A0541F44E0F5A0AB08AA09A90A850C9C
:100208008275830012001E9004D993F5807F0180C7
:1002180034E5A0541F44E0F5A07580FFE5A0541F05
:1002280044C0F5A0AF0C7401A807088002C333D8F6
:10023800FCF5807F017E001205E4E5A0541F44E030
:10024800F5A07580FF1205E4050CE50CD394075062
:04025800030201BBE1
:01025C00227F
:100429007C007D641200B27E007F0ACFCDCFCECC96
:08043900CE1200B2AD077F06F0
:100441008F0EA9057F017E001205E4E5A0541F442B
:10045100C0F5A0E50E9004CB93F580E5A0541F44B0
:0F046100E0F5A0E99004AB93F5807F010205E47C
:100556008F0EA9057F017E001205E4E5A0541F4415
:10056600C0F5A0E50E9004CB93F580E5A0541F449A
:0F057600E0F5A0E99004B793F5807F010205E45A
:1006EA00E5A0541F4480F5A0742A2FF8E6F580226D
:04070900D2A07F05F6
:08070D0000AE071FEE70F92297
:0F06FA00D2A1120709C2A17F0512070DC2A022CB
:0C071500C2A1120709D2A17F0502070D46
:1006A800C2A0A20092A17F0512070D120709C2A0DD
:0706B800D2A17F0502070D2E
:0306D6001205B456
:1006D900120709A2A19201C2A07F0512070DA2016A
:0106E90022EE
:0205B400AD0791
:1005B600E4FCC2A07F0512070DED30E704D2A1804E
:1005C60002C2A17F0512070DD2A0ED25E0FD7F0531
:0905D60012070D0CBC08DBC2A0E9
:0105DF0022F9
:10065700E4FC120709ED25E0FD30A103430501C2C3
:0C066700A07F0512070D0CBC08E8AF05D1
:010673002264
:09073300D2B3D2B2D2B1D2B0228D
:10067400758CFF758AFF758D3C758BB0758916D2A4
:0A068400A9D2ABD2AFD28CD28E22E5
:03000B0002000EE2
:0D000E00C0E00536E53670020535D0E03261
:03001B00020632A8
:10063200C0E0C0D0758D3C758BB00523E523B414A2
:100642000F853521853622753500753600752300F4
:05065200D0D0D0E03221
:1000E8007D05E4FF1205567F011206EAD3E5229446
:1000F8000FE52194274012AE21AF227C037DE81240
:10010800005DAD077F03120441D3E52294E7E521A2
:1001180094034017AE21AF227C037DE812005D7C7A
:10012800007D0A12005D7F04120441D3E522946326
:10013800E52194004017AE21AF227C007D641200B7
:100148005D7C007D0A12005D7F05120441D3E52223
:100158009409E52194004017AE21AF227C007D0A66
:1001680012005D7C007D0A12005D7F06120441AE1C
:1001780021AF227C007D0A12005D7F07120441D363
:1001880074E8952274039521500DC3E5229488E5FF
:100198002194135002800BC3E5229410E521942783
:0801A80040057F031206EA2264
:1002E900AE24AF257C007D6412004B7D331200B231
:1002F9008E398F3A75A0807580EEAE39AF3A120407
:1003090029AE39AF3A7C007D0A1200B27F07120488
:10031900417D09E4FF120556E5A0541F44C0F5A02C
:100329009004D0E493F580E5A074FFF5A0AE39AF51
:100339003A7C007D641200B274AB2FF58274043EDE
:10034900F583E4932480F580AE24AF257C007D6499
:0D03590012004B7D331200B28E378F382218
:100609001206FA7F901206D67F031206D612071534
:100619001206FA7F911205B41206D91206577524EB
:09062900008F251206D902071505
:10036600790420B00A1205E020B0040930B0FDE996
:1003760030E0507D0BE4FF1204417D0B7F01120437
:10038600417D0B7F021204417D0B7F031204417DE8
:100396000B7F041204417D0B7F051204417D0B7F08
:1003A600061204417D0B7F07120441E53864C845F7
:1003B60037600675A0807580EE20B0B71205E02084
:0303C600B0B122B1
:0103C9002211
:10051F00750D0420B10B1205E020B105050D30B1AA
:10052F00FDE50D20E0061206091202E9E50D30E0A7
:10053F00157F081206EA1206091203CA20B1F21239
:06054F0005E020B1EC22E2
:010555002283
:10058500750D0420B30B1205E020B305050D30B33E
:10059500FDE50D20E0061206091202E9E50D30E041
:0E05A5000D1200E820B3FA1205E020B3F42294
:0105B3002225
:1003CA00AE24AF257C007D6412004B7D331200B24F
:1003DA008E398F3A120429AE39AF3A7C007D0A125F
:1003EA0000B27F071204417D09E4FF120556E5A019
:1003FA00541F44C0F5A09004D0E493F580E5A0749E
:10040A00FFF5A0AE39AF3A7C007D641200B274AB3E
:0F041A002FF58274043EF583E4932480F580224D
:10047000750D0420B20B1205E020B205050D30B257
:10048000FDE50D20E0061206091202E9E50D30E057
:10049000197524007525661203CA75A0807580FA47
:0A04A00020B2EE1205E020B2E822BF
:0104AA00222F
:10068E001207331206741206091202E912036612D9
:0A069E00051F12047012058580ECA0
:1002690002068EE493A3F8E493A34003F68001F217
:1002790008DFF48029E493A3F85407240CC8C33396
:10028900C4540F4420C8834004F456800146F6DF65
:10029900E4800B01020408102040809006BFE47E30
:1002A900019360BCA3FF543F30E509541FFEE4935A
:1002B900A360010ECF54C025E060A840B8E493A321
:1002C900FAE493A3F8E493A3C8C582C8CAC583CA4C
:1002D900F0A3C8C582C8CAC583CADFE9DEE780BE04
:0106D5000024
:10001E00BB010CE58229F582E5833AF583E0225097
:10002E0006E92582F8E622BBFE06E92582F8E222E1
:0D003E00E58229F582E5833AF583E49322FB
:10004B00EF8DF0A4A8F0CF8CF0A428CE8DF0A42EC9
:02005B00FE2283
:10005D00BC000BBE0029EF8DF084FFADF022E4CC87
:10006D00F875F008EF2FFFEE33FEEC33FCEE9DEC50
:10007D00984005FCEE9DFE0FD5F0E9E4CEFD22ED96
:10008D00F8F5F0EE8420D21CFEADF075F008EF2FE0
:10009D00FFED33FD4007985006D5F0F222C398FDD1
:0500AD000FD5F0EA226E
:1000B200C2D5EC30E709B2D5E4C39DFDE49CFCEE69
:1000C20030E715B2D5E4C39FFFE49EFE12005DC384
:1000D200E49DFDE49CFC800312005D30D507C3E47F
:0600E2009FFFE49EFE22D8
:00000001FF
